{"abi":[{"type":"constructor","inputs":[],"stateMutability":"nonpayable"},{"type":"function","name":"getProof","inputs":[{"name":"proofId","type":"uint256","internalType":"uint256"}],"outputs":[{"name":"","type":"tuple","internalType":"struct DOFProofRegistry.ProofRecord","components":[{"name":"agentId","type":"uint256","internalType":"uint256"},{"name":"trustScore","type":"uint256","internalType":"uint256"},{"name":"z3ProofHash","type":"bytes32","internalType":"bytes32"},{"name":"storageRef","type":"string","internalType":"string"},{"name":"invariantsCount","type":"uint8","internalType":"uint8"},{"name":"timestamp","type":"uint256","internalType":"uint256"},{"name":"verified","type":"bool","internalType":"bool"}]}],"stateMutability":"view"},{"type":"function","name":"getProofCount","inputs":[],"outputs":[{"name":"","type":"uint256","internalType":"uint256"}],"stateMutability":"view"},{"type":"function","name":"owner","inputs":[],"outputs":[{"name":"","type":"address","internalType":"address"}],"stateMutability":"view"},{"type":"function","name":"proofCount","inputs":[],"outputs":[{"name":"","type":"uint256","internalType":"uint256"}],"stateMutability":"view"},{"type":"function","name":"proofs","inputs":[{"name":"","type":"uint256","internalType":"uint256"}],"outputs":[{"name":"agentId","type":"uint256","internalType":"uint256"},{"name":"trustScore","type":"uint256","internalType":"uint256"},{"name":"z3ProofHash","type":"bytes32","internalType":"bytes32"},{"name":"storageRef","type":"string","internalType":"string"},{"name":"invariantsCount","type":"uint8","internalType":"uint8"},{"name":"timestamp","type":"uint256","internalType":"uint256"},{"name":"verified","type":"bool","internalType":"bool"}],"stateMutability":"view"},{"type":"function","name":"registerProof","inputs":[{"name":"agentId","type":"uint256","internalType":"uint256"},{"name":"trustScore","type":"uint256","internalType":"uint256"},{"name":"z3ProofHash","type":"bytes32","internalType":"bytes32"},{"name":"storageRef","type":"string","internalType":"string"},{"name":"invariantsCount","type":"uint8","internalType":"uint8"}],"outputs":[{"name":"","type":"uint256","internalType":"uint256"}],"stateMutability":"nonpayable"},{"type":"function","name":"verifyProof","inputs":[{"name":"proofId","type":"uint256","internalType":"uint256"},{"name":"proofTranscript","type":"bytes","internalType":"bytes"}],"outputs":[{"name":"","type":"bool","internalType":"bool"}],"stateMutability":"nonpayable"},{"type":"event","name":"ProofRegistered","inputs":[{"name":"proofId","type":"uint256","indexed":true,"internalType":"uint256"},{"name":"agentId","type":"uint256","indexed":true,"internalType":"uint256"},{"name":"z3ProofHash","type":"bytes32","indexed":false,"internalType":"bytes32"},{"name":"storageRef","type":"string","indexed":false,"internalType":"string"}],"anonymous":false},{"type":"event","name":"ProofVerified","inputs":[{"name":"proofId","type":"uint256","indexed":true,"internalType":"uint256"},{"name":"verified","type":"bool","indexed":false,"internalType":"bool"}],"anonymous":false}],"bytecode":{"object":"0x6080604052348015600e575f5ffd5b503360025f6101000a81548173ffffffffffffffffffffffffffffffffffffffff021916908373ffffffffffffffffffffffffffffffffffffffff1602179055506110f98061005c5f395ff3fe608060405234801561000f575f5ffd5b506004361061007b575f3560e01c80638da5cb5b116100595780638da5cb5b146100fd5780639ddaf5aa1461011b578063addecc0614610151578063c94592491461016f5761007b565b806311149ada1461007f5780635be4ee1b146100af578063625c032c146100cd575b5f5ffd5b610099600480360381019061009491906106d8565b61019f565b6040516100a69190610868565b60405180910390f35b6100b76102fa565b6040516100c49190610897565b60405180910390f35b6100e760048036038101906100e29190610965565b610303565b6040516100f49190610897565b60405180910390f35b610105610475565b6040516101129190610a3a565b60405180910390f35b610135600480360381019061013091906106d8565b61049a565b6040516101489796959493929190610ac8565b60405180910390f35b610159610575565b6040516101669190610897565b60405180910390f35b61018960048036038101906101849190610b91565b61057b565b6040516101969190610bee565b60405180910390f35b6101a7610661565b60015482106101eb576040517f08c379a00000000000000000000000000000000000000000000000000000000081526004016101e290610c77565b60405180910390fd5b5f5f8381526020019081526020015f206040518060e00160405290815f8201548152602001600182015481526020016002820154815260200160038201805461023390610cc2565b80601f016020809104026020016040519081016040528092919081815260200182805461025f90610cc2565b80156102aa5780601f10610281576101008083540402835291602001916102aa565b820191905f5260205f20905b81548152906001019060200180831161028d57829003601f168201915b50505050508152602001600482015f9054906101000a900460ff1660ff1660ff16815260200160058201548152602001600682015f9054906101000a900460ff1615151515815250509050919050565b5f600154905090565b5f5f60015490506040518060e0016040528089815260200188815260200187815260200186868080601f0160208091040260200160405190810160405280939291908181526020018383808284375f81840152601f19601f8201169050808301925050505050505081526020018460ff1681526020014281526020015f15158152505f5f8381526020019081526020015f205f820151815f0155602082015181600101556040820151816002015560608201518160030190816103c69190610ed0565b506080820151816004015f6101000a81548160ff021916908360ff16021790555060a0820151816005015560c0820151816006015f6101000a81548160ff02191690831515021790555090505060015f81548092919061042590610fcc565b919050555087817feb76776a23294e1f486bffa083169bebd52ed00bf5299f91d6c4ced229e41bc188888860405161045f9392919061104d565b60405180910390a3809150509695505050505050565b60025f9054906101000a900473ffffffffffffffffffffffffffffffffffffffff1681565b5f602052805f5260405f205f91509050805f0154908060010154908060020154908060030180546104ca90610cc2565b80601f01602080910402602001604051908101604052809291908181526020018280546104f690610cc2565b80156105415780601f1061051857610100808354040283529160200191610541565b820191905f5260205f20905b81548152906001019060200180831161052457829003601f168201915b505050505090806004015f9054906101000a900460ff1690806005015490806006015f9054906101000a900460ff16905087565b60015481565b5f60015484106105c0576040517f08c379a00000000000000000000000000000000000000000000000000000000081526004016105b790610c77565b60405180910390fd5b5f5f5f8681526020019081526020015f2090505f84846040516105e49291906110ab565b604051809103902090505f8260020154821490508015610654576001836006015f6101000a81548160ff021916908315150217905550867f3be2725592ab0e6a22480e6578f02741d024014aed13ba676461b18208c66e13600160405161064b9190610bee565b60405180910390a25b8093505050509392505050565b6040518060e001604052805f81526020015f81526020015f8152602001606081526020015f60ff1681526020015f81526020015f151581525090565b5f5ffd5b5f5ffd5b5f819050919050565b6106b7816106a5565b81146106c1575f5ffd5b50565b5f813590506106d2816106ae565b92915050565b5f602082840312156106ed576106ec61069d565b5b5f6106fa848285016106c4565b91505092915050565b61070c816106a5565b82525050565b5f819050919050565b61072481610712565b82525050565b5f81519050919050565b5f82825260208201905092915050565b8281835e5f83830152505050565b5f601f19601f8301169050919050565b5f61076c8261072a565b6107768185610734565b9350610786818560208601610744565b61078f81610752565b840191505092915050565b5f60ff82169050919050565b6107af8161079a565b82525050565b5f8115159050919050565b6107c9816107b5565b82525050565b5f60e083015f8301516107e45f860182610703565b5060208301516107f76020860182610703565b50604083015161080a604086018261071b565b50606083015184820360608601526108228282610762565b915050608083015161083760808601826107a6565b5060a083015161084a60a0860182610703565b5060c083015161085d60c08601826107c0565b508091505092915050565b5f6020820190508181035f83015261088081846107cf565b905092915050565b610891816106a5565b82525050565b5f6020820190506108aa5f830184610888565b92915050565b6108b981610712565b81146108c3575f5ffd5b50565b5f813590506108d4816108b0565b92915050565b5f5ffd5b5f5ffd5b5f5ffd5b5f5f83601f8401126108fb576108fa6108da565b5b8235905067ffffffffffffffff811115610918576109176108de565b5b602083019150836001820283011115610934576109336108e2565b5b9250929050565b6109448161079a565b811461094e575f5ffd5b50565b5f8135905061095f8161093b565b92915050565b5f5f5f5f5f5f60a0878903121561097f5761097e61069d565b5b5f61098c89828a016106c4565b965050602061099d89828a016106c4565b95505060406109ae89828a016108c6565b945050606087013567ffffffffffffffff8111156109cf576109ce6106a1565b5b6109db89828a016108e6565b935093505060806109ee89828a01610951565b9150509295509295509295565b5f73ffffffffffffffffffffffffffffffffffffffff82169050919050565b5f610a24826109fb565b9050919050565b610a3481610a1a565b82525050565b5f602082019050610a4d5f830184610a2b565b92915050565b610a5c81610712565b82525050565b5f82825260208201905092915050565b5f610a7c8261072a565b610a868185610a62565b9350610a96818560208601610744565b610a9f81610752565b840191505092915050565b610ab38161079a565b82525050565b610ac2816107b5565b82525050565b5f60e082019050610adb5f83018a610888565b610ae86020830189610888565b610af56040830188610a53565b8181036060830152610b078187610a72565b9050610b166080830186610aaa565b610b2360a0830185610888565b610b3060c0830184610ab9565b98975050505050505050565b5f5f83601f840112610b5157610b506108da565b5b8235905067ffffffffffffffff811115610b6e57610b6d6108de565b5b602083019150836001820283011115610b8a57610b896108e2565b5b9250929050565b5f5f5f60408486031215610ba857610ba761069d565b5b5f610bb5868287016106c4565b935050602084013567ffffffffffffffff811115610bd657610bd56106a1565b5b610be286828701610b3c565b92509250509250925092565b5f602082019050610c015f830184610ab9565b92915050565b7f444f4650726f6f6652656769737472793a20696e76616c69642070726f6f66205f8201527f4944000000000000000000000000000000000000000000000000000000000000602082015250565b5f610c61602283610a62565b9150610c6c82610c07565b604082019050919050565b5f6020820190508181035f830152610c8e81610c55565b9050919050565b7f4e487b71000000000000000000000000000000000000000000000000000000005f52602260045260245ffd5b5f6002820490506001821680610cd957607f821691505b602082108103610cec57610ceb610c95565b5b50919050565b7f4e487b71000000000000000000000000000000000000000000000000000000005f52604160045260245ffd5b5f819050815f5260205f209050919050565b5f6020601f8301049050919050565b5f82821b905092915050565b5f60088302610d7b7fffffffffffffffffffffffffffffffffffffffffffffffffffffffffffffffff82610d40565b610d858683610d40565b95508019841693508086168417925050509392505050565b5f819050919050565b5f610dc0610dbb610db6846106a5565b610d9d565b6106a5565b9050919050565b5f819050919050565b610dd983610da6565b610ded610de582610dc7565b848454610d4c565b825550505050565b5f5f905090565b610e04610df5565b610e0f818484610dd0565b505050565b5f5b82811015610e3557610e2a5f828401610dfc565b600181019050610e16565b505050565b601f821115610e885782821115610e8757610e5481610d1f565b610e5d83610d31565b610e6685610d31565b6020861015610e73575f90505b808301610e8282840382610e14565b505050505b5b505050565b5f82821c905092915050565b5f610ea85f1984600802610e8d565b1980831691505092915050565b5f610ec08383610e99565b9150826002028217905092915050565b610ed98261072a565b67ffffffffffffffff811115610ef257610ef1610cf2565b5b610efc8254610cc2565b610f07828285610e3a565b5f60209050601f831160018114610f38575f8415610f26578287015190505b610f308582610eb5565b865550610f97565b601f198416610f4686610d1f565b5f5b82811015610f6d57848901518255600182019150602085019450602081019050610f48565b86831015610f8a5784890151610f86601f891682610e99565b8355505b6001600288020188555050505b505050505050565b7f4e487b71000000000000000000000000000000000000000000000000000000005f52601160045260245ffd5b5f610fd6826106a5565b91507fffffffffffffffffffffffffffffffffffffffffffffffffffffffffffffffff820361100857611007610f9f565b5b600182019050919050565b828183375f83830152505050565b5f61102c8385610a62565b9350611039838584611013565b61104283610752565b840190509392505050565b5f6040820190506110605f830186610a53565b8181036020830152611073818486611021565b9050949350505050565b5f81905092915050565b5f611092838561107d565b935061109f838584611013565b82840190509392505050565b5f6110b7828486611087565b9150819050939250505056fea2646970667358221220e864f5456d68c2403790b0ec5f222b63ce8abfd653219fba570bca414cf40fdd64736f6c63430008210033","linkReferences":{}},"methodIdentifiers":{"getProof(uint256)":"11149ada","getProofCount()":"5be4ee1b","owner()":"8da5cb5b","proofCount()":"addecc06","proofs(uint256)":"9ddaf5aa","registerProof(uint256,uint256,bytes32,string,uint8)":"625c032c","verifyProof(uint256,bytes)":"c9459249"},"id":0}